:080000000C943D000C9400007B
:100008000C9400000C9400000C9400000C94000068
:100018000C9400000C9400000C9400000C94000058
:100028000C9400000C9400000C9400000C94000048
:100038000C9400000C9400000C9400000C94000038
:100048000C9400000C9400000C9400000C94000028
:100058000C9400000C9400000C9400000C94000018
:10006800080109050D0700000000040003006E00E8
:100078000000F894EE27EFBBF1E0F5BFE5BF8DE097
:10008800A2E0BB27ED938A95E9F780E098E0A0E02D
:10009800B1E0ED930197E9F7E2E7F0E085919591FA
:1000A800009761F0A591B59105901590BF01F001F9
:1000B80005900D920197E1F7FB01F0CFE0E0EEBB70
:1000C800EFEFEDBFE8E0EEBFC0E0D3E00C94340101
:1000D800BA93AA931A930A93AA81BB81EBEF0E9461
:1000E800AF01ED54FF4FF0708F01D801E6E0F0E06A
:1000F8000E94CD0116C0BA93AA931A930A9300E0FE
:10010800E02FF0E0AA81BB81AE0FBF1FE1DFEF5FF8
:100118001E2F0F5F611611F40A3008F001C0F0CFEE
:10012800E12F1981088124960895389A399A3A9AC4
:100138003B9A21982998209A409841984298439848
:1001480056C040984198429843980895AA931A93A4
:10015800E981F0E0E859FF4FE4911E2F10FF02C03B
:10016800E1E001C0E0E0E03011F4409801C0409ABD
:1001780011FF02C0E1E001C0E0E0E03011F4419875
:1001880001C0419A12FF02C0E1E001C0E0E0E030A6
:1001980011F4429801C0429A13FF02C0E1E001C085
:1001A800E0E0E03011F4439801C0439A18812296A8
:1001B80008951A9310E0133098F4289AE2E0E19F2A
:1001C800F0013396AAE0B0E00E94B501DF010E9479
:1001D8008D012898A2E3B0E00E948D011F5FEBCF4C
:1001E80019910895289AA4E6B0E00E948D012898F4
:1001F8000895BA93AA930E94DE010AE010E04E81A6
:100208005F8120E030E020173107C0F42197DA0140
:100218005FDFE883A8819ADFA4EFB1E00E948D0137
:1002280090DFABEFA49FF001A59FF00DED54FF4FB9
:10023800F070AF0121962F5F3F4FE5CF0E94E50197
:1002480028960895AA93A881A13010F0A73008F045
:1002580005C0A881A1507ADFACDF68802196089597
:1002680064DF2597E0E0E883E98343D010F4332482
:10027800442448D00E949B01EA27FB27E883F9839E
:10028800199934C0A2E3B0E00E948D0119992EC0DB
:10029800A9DF199910C02DD010F43324442432D08A
:1002A8000E94A201EA27FB27E883F983AAE0B0E0CD
:1002B8000E948D01EECFA881B981A325B425E881DC
:1002C800F981F695E795EA0FFB1FEB83FC83AB8179
:1002D800BC818FDFE881F9810E949D01AB81BC81DF
:1002E800AE0FBF1F08DFEA83AA81ACDF2596B9CF1E
:1002F800FFCFE1E0F0E03E0E4F1EEFEFFFEFE3151A
:10030800F4050895E32DF42DA881B981AE0FBF1F20
:100318000895109639F080ED97E00197F1F7A895C8
:100328001197C9F70895F195E195F0400895EE0FFA
:10033800FF1FEE0FFF1FEE0FFF1F0895F695E795BD
:10034800F695E7950895FA9FF02DEB9FF00DEA9F3B
:10035800E02DF10D08956E2F6A9FF0016B9FF00D4F
:1003680008951AD0F0DF0EF4DEDF0895002411247A
:1003780090E1AA0FBB1F001C111C0E1A1F0A18F4CB
:100388000E0E1F1E01C0A1609A9599F7FD01D001BC
:100398000895ECDFFD010895E894F7FF02C0C3DF7C
:1003A8006894B7FF06C0A095B095119600F803941D
:1003B80000FA08955A934A933A932A931A930A9300
:1003C80008955D814C813B812A81198108810895B6
:00000001FF
